{"abi":[{"type":"constructor","inputs":[{"name":"_deployer","type":"address","internalType":"address"}],"stateMutability":"nonpayable"},{"type":"function","name":"depositCollMintBrsc","inputs":[{"name":"_tokenCollateral","type":"address","internalType":"address"},{"name":"_collAmount","type":"uint256","internalType":"uint256"},{"name":"_brscToMint","type":"uint256","internalType":"uint256"}],"outputs":[],"stateMutability":"nonpayable"},{"type":"function","name":"depositCollateral","inputs":[{"name":"_tokenCollateralAddress","type":"address","internalType":"address"},{"name":"_amountCollateral","type":"uint256","internalType":"uint256"}],"outputs":[],"stateMutability":"nonpayable"},{"type":"function","name":"i_ETHRS","inputs":[],"outputs":[{"name":"","type":"address","internalType":"contract Ethereis"}],"stateMutability":"view"},{"type":"function","name":"mintBrsc","inputs":[{"name":"_amountToMint","type":"uint256","internalType":"uint256"}],"outputs":[],"stateMutability":"nonpayable"},{"type":"event","name":"collateralDeposited","inputs":[{"name":"user","type":"address","indexed":true,"internalType":"address"},{"name":"token","type":"address","indexed":true,"internalType":"address"},{"name":"amount","type":"uint256","indexed":false,"internalType":"uint256"}],"anonymous":false},{"type":"event","name":"collateralRedeemed","inputs":[{"name":"from","type":"address","indexed":true,"internalType":"address"},{"name":"to","type":"address","indexed":true,"internalType":"address"},{"name":"token","type":"address","indexed":false,"internalType":"address"},{"name":"amount","type":"uint256","indexed":false,"internalType":"uint256"}],"anonymous":false},{"type":"error","name":"Engine__HighHealth","inputs":[]},{"type":"error","name":"Engine__LowHealthFactor","inputs":[{"name":"healthFactor","type":"uint256","internalType":"uint256"}]},{"type":"error","name":"Engine__MintFailed","inputs":[]},{"type":"error","name":"Engine__NotEnoughCollateral","inputs":[]},{"type":"error","name":"Engine__NotMoreThanZero","inputs":[]},{"type":"error","name":"Engine__TransferFailed","inputs":[]},{"type":"error","name":"ReentrancyGuardReentrantCall","inputs":[]}],"bytecode":{"object":"0x60a060405234801561001057600080fd5b5060405161050038038061050083398101604081905261002f91610045565b60016000556001600160a01b0316608052610075565b60006020828403121561005757600080fd5b81516001600160a01b038116811461006e57600080fd5b9392505050565b60805161046a6100966000396000818160910152610134015261046a6000f3fe608060405234801561001057600080fd5b506004361061004c5760003560e01c8063394bf64f146100515780633b59acb414610066578063a5d5db0c14610079578063e64592d51461008c575b600080fd5b61006461005f366004610352565b6100cf565b005b610064610074366004610387565b6101ce565b6100646100873660046103ba565b6101e1565b6100b37f000000000000000000000000000000000000000000000000000000000000000081565b6040516001600160a01b03909116815260200160405180910390f35b80806000036100f1576040516373e38c0d60e11b815260040160405180910390fd5b33600090815260026020526040812080548492906101109084906103e4565b90915550506040516340c10f1960e01b8152336004820152602481018390526000907f00000000000000000000000000000000000000000000000000000000000000006001600160a01b0316906340c10f19906044016020604051808303816000875af1158015610185573d6000803e3d6000fd5b505050506040513d601f19601f820116820180604052508101906101a9919061040b565b9050806101c95760405163e88f327f60e01b815260040160405180910390fd5b505050565b6101d883836101e1565b6101c9816100cf565b8080600003610203576040516373e38c0d60e11b815260040160405180910390fd5b61020b610328565b3360009081526001602090815260408083206001600160a01b03871684529091528120805484929061023e9084906103e4565b90915550506040518281526001600160a01b0384169033907fe4c032bd651f378a59936633a0f92b7497fd3577f65c95dc20a01acface334cc9060200160405180910390a36040516323b872dd60e01b8152336004820152306024820152604481018390526000906001600160a01b038516906323b872dd906064016020604051808303816000875af11580156102d9573d6000803e3d6000fd5b505050506040513d601f19601f820116820180604052508101906102fd919061040b565b90508061031d576040516347a867b760e01b815260040160405180910390fd5b506101c96001600055565b60026000540361034b57604051633ee5aeb560e01b815260040160405180910390fd5b6002600055565b60006020828403121561036457600080fd5b5035919050565b80356001600160a01b038116811461038257600080fd5b919050565b60008060006060848603121561039c57600080fd5b6103a58461036b565b95602085013595506040909401359392505050565b600080604083850312156103cd57600080fd5b6103d68361036b565b946020939093013593505050565b8082018082111561040557634e487b7160e01b600052601160045260246000fd5b92915050565b60006020828403121561041d57600080fd5b8151801515811461042d57600080fd5b939250505056fea264697066735822122068073d193d57f60349555c1f372ff6705979f0070dd0b2ca43efa9d5e8c4623a64736f6c63430008140033","linkReferences":{}},"methodIdentifiers":{"depositCollMintBrsc(address,uint256,uint256)":"3b59acb4","depositCollateral(address,uint256)":"a5d5db0c","i_ETHRS()":"e64592d5","mintBrsc(uint256)":"394bf64f"},"id":0}