{"abi":[{"type":"constructor","inputs":[{"name":"_owner","type":"address","internalType":"address"}],"stateMutability":"nonpayable"},{"type":"receive","stateMutability":"payable"},{"type":"function","name":"greeting","inputs":[],"outputs":[{"name":"","type":"string","internalType":"string"}],"stateMutability":"view"},{"type":"function","name":"owner","inputs":[],"outputs":[{"name":"","type":"address","internalType":"address"}],"stateMutability":"view"},{"type":"function","name":"premium","inputs":[],"outputs":[{"name":"","type":"bool","internalType":"bool"}],"stateMutability":"view"},{"type":"function","name":"setGreeting","inputs":[{"name":"_newGreeting","type":"string","internalType":"string"}],"outputs":[],"stateMutability":"payable"},{"type":"function","name":"totalCounter","inputs":[],"outputs":[{"name":"","type":"uint256","internalType":"uint256"}],"stateMutability":"view"},{"type":"function","name":"userGreetingCounter","inputs":[{"name":"","type":"address","internalType":"address"}],"outputs":[{"name":"","type":"uint256","internalType":"uint256"}],"stateMutability":"view"},{"type":"function","name":"withdraw","inputs":[],"outputs":[],"stateMutability":"nonpayable"},{"type":"event","name":"GreetingChange","inputs":[{"name":"greetingSetter","type":"address","indexed":true,"internalType":"address"},{"name":"newGreeting","type":"string","indexed":false,"internalType":"string"},{"name":"premium","type":"bool","indexed":false,"internalType":"bool"},{"name":"value","type":"uint256","indexed":false,"internalType":"uint256"}],"anonymous":false}],"bytecode":{"object":"0x60e0604052601c60a09081527f4275696c64696e6720556e73746f707061626c6520417070732121210000000060c05260009061003c9082610129565b506001805460ff19169055600060025534801561005857600080fd5b506040516109f83803806109f8833981016040819052610077916101e8565b6001600160a01b0316608052610218565b634e487b7160e01b600052604160045260246000fd5b600181811c908216806100b257607f821691505b6020821081036100d257634e487b7160e01b600052602260045260246000fd5b50919050565b601f821115610124576000816000526020600020601f850160051c810160208610156101015750805b601f850160051c820191505b818110156101205782815560010161010d565b5050505b505050565b81516001600160401b0381111561014257610142610088565b61015681610150845461009e565b846100d8565b602080601f83116001811461018b57600084156101735750858301515b600019600386901b1c1916600185901b178555610120565b600085815260208120601f198616915b828110156101ba5788860151825594840194600190910190840161019b565b50858210156101d85787850151600019600388901b60f8161c191681555b5050505050600190811b01905550565b6000602082840312156101fa57600080fd5b81516001600160a01b038116811461021157600080fd5b9392505050565b6080516107b86102406000396000818160a9015281816101a3015261020901526107b86000f3fe6080604052600436106100745760003560e01c8063a41368621161004e578063a41368621461010c578063cea49c3c1461011f578063e0a73a931461014c578063ef690cc01461017657600080fd5b80633ccfd60b146100805780638da5cb5b1461009757806397feba9d146100e857600080fd5b3661007b57005b600080fd5b34801561008c57600080fd5b50610095610198565b005b3480156100a357600080fd5b506100cb7f000000000000000000000000000000000000000000000000000000000000000081565b6040516001600160a01b0390911681526020015b60405180910390f35b3480156100f457600080fd5b506100fe60025481565b6040519081526020016100df565b61009561011a3660046104b1565b6102c2565b34801561012b57600080fd5b506100fe61013a366004610562565b60036020526000908152604090205481565b34801561015857600080fd5b506001546101669060ff1681565b60405190151581526020016100df565b34801561018257600080fd5b5061018b6103ae565b6040516100df91906105d8565b336001600160a01b037f000000000000000000000000000000000000000000000000000000000000000016146102055760405162461bcd60e51b815260206004820152600d60248201526c2737ba103a34329027bbb732b960991b60448201526064015b60405180910390fd5b60007f00000000000000000000000000000000000000000000000000000000000000006001600160a01b03164760405160006040518083038185875af1925050503d8060008114610272576040519150601f19603f3d011682016040523d82523d6000602084013e610277565b606091505b50509050806102bf5760405162461bcd60e51b81526020600482015260146024820152732330b4b632b2103a379039b2b7321022ba3432b960611b60448201526064016101fc565b50565b6102f76040518060400160405280601481526020017353657474696e67206e6577206772656574696e6760601b81525061043c565b6103008161043c565b600061030c8282610676565b506001600260008282546103209190610736565b9091555050336000908152600360205260408120805460019290610345908490610736565b90915550503415610361576001805460ff19168117905561036c565b6001805460ff191690555b60405133907f94cbd7e04dca26a7667654f6448b2ca0a40fec602118dc5fd8c82b9cf3c645ad906103a3908490348015159161075d565b60405180910390a250565b600080546103bb906105eb565b80601f01602080910402602001604051908101604052809291908181526020018280546103e7906105eb565b80156104345780601f1061040957610100808354040283529160200191610434565b820191906000526020600020905b81548152906001019060200180831161041757829003601f168201915b505050505081565b6102bf8160405160240161045091906105d8565b60408051601f198184030181529190526020810180516001600160e01b031663104c13eb60e21b17905280516a636f6e736f6c652e6c6f67602083016000808483855afa5050505050565b634e487b7160e01b600052604160045260246000fd5b6000602082840312156104c357600080fd5b813567ffffffffffffffff808211156104db57600080fd5b818401915084601f8301126104ef57600080fd5b8135818111156105015761050161049b565b604051601f8201601f19908116603f011681019083821181831017156105295761052961049b565b8160405282815287602084870101111561054257600080fd5b826020860160208301376000928101602001929092525095945050505050565b60006020828403121561057457600080fd5b81356001600160a01b038116811461058b57600080fd5b9392505050565b6000815180845260005b818110156105b85760208185018101518683018201520161059c565b506000602082860101526020601f19601f83011685010191505092915050565b60208152600061058b6020830184610592565b600181811c908216806105ff57607f821691505b60208210810361061f57634e487b7160e01b600052602260045260246000fd5b50919050565b601f821115610671576000816000526020600020601f850160051c8101602086101561064e5750805b601f850160051c820191505b8181101561066d5782815560010161065a565b5050505b505050565b815167ffffffffffffffff8111156106905761069061049b565b6106a48161069e84546105eb565b84610625565b602080601f8311600181146106d957600084156106c15750858301515b600019600386901b1c1916600185901b17855561066d565b600085815260208120601f198616915b82811015610708578886015182559484019460019091019084016106e9565b50858210156107265787850151600019600388901b60f8161c191681555b5050505050600190811b01905550565b8082018082111561075757634e487b7160e01b600052601160045260246000fd5b92915050565b6060815260006107706060830186610592565b9315156020830152506040015291905056fea264697066735822122008e3033ad492ba2ffc2fa83f8004f1ac070c3628074e04e3e6851b6aa02f6a9864736f6c63430008180033","linkReferences":{}},"methodIdentifiers":{"greeting()":"ef690cc0","owner()":"8da5cb5b","premium()":"e0a73a93","setGreeting(string)":"a4136862","totalCounter()":"97feba9d","userGreetingCounter(address)":"cea49c3c","withdraw()":"3ccfd60b"},"id":3}