{"abi":[{"type":"constructor","inputs":[{"name":"_tokenAddresses","type":"address[]","internalType":"address[]"},{"name":"_priceFeedAddresses","type":"address[]","internalType":"address[]"},{"name":"_brscAddress","type":"address","internalType":"address"}],"stateMutability":"nonpayable"},{"type":"function","name":"AccountCollateralValue","inputs":[{"name":"_user","type":"address","internalType":"address"}],"outputs":[{"name":"collateralValueInUSD","type":"uint256","internalType":"uint256"}],"stateMutability":"view"},{"type":"function","name":"burnBrsc","inputs":[{"name":"_amount","type":"uint256","internalType":"uint256"}],"outputs":[],"stateMutability":"nonpayable"},{"type":"function","name":"depositCollMintBrsc","inputs":[{"name":"_tokenCollateral","type":"address","internalType":"address"},{"name":"_collAmount","type":"uint256","internalType":"uint256"},{"name":"_brscToMint","type":"uint256","internalType":"uint256"}],"outputs":[],"stateMutability":"nonpayable"},{"type":"function","name":"depositCollateral","inputs":[{"name":"_tokenCollateralAddress","type":"address","internalType":"address"},{"name":"_amountCollateral","type":"uint256","internalType":"uint256"}],"outputs":[],"stateMutability":"nonpayable"},{"type":"function","name":"getPriceFeed","inputs":[{"name":"_tokenAddress","type":"address","internalType":"address"}],"outputs":[{"name":"","type":"address","internalType":"address"}],"stateMutability":"view"},{"type":"function","name":"getUSDValueOfToken","inputs":[{"name":"_token","type":"address","internalType":"address"},{"name":"_amount","type":"uint256","internalType":"uint256"}],"outputs":[{"name":"","type":"uint256","internalType":"uint256"}],"stateMutability":"view"},{"type":"function","name":"i_ETHRS","inputs":[],"outputs":[{"name":"","type":"address","internalType":"contract Ethereis"}],"stateMutability":"view"},{"type":"function","name":"liquidate","inputs":[{"name":"_collateral","type":"address","internalType":"address"},{"name":"_user","type":"address","internalType":"address"},{"name":"_Debt","type":"uint256","internalType":"uint256"}],"outputs":[],"stateMutability":"nonpayable"},{"type":"function","name":"mintBrsc","inputs":[{"name":"_amountToMint","type":"uint256","internalType":"uint256"}],"outputs":[],"stateMutability":"nonpayable"},{"type":"function","name":"redeemCollateral","inputs":[{"name":"_tokenCollateral","type":"address","internalType":"address"},{"name":"_collAmount","type":"uint256","internalType":"uint256"}],"outputs":[],"stateMutability":"nonpayable"},{"type":"function","name":"s_PriceFeed","inputs":[{"name":"token","type":"address","internalType":"address"}],"outputs":[{"name":"priceFeed","type":"address","internalType":"address"}],"stateMutability":"view"},{"type":"function","name":"s_collateralTokens","inputs":[{"name":"","type":"uint256","internalType":"uint256"}],"outputs":[{"name":"","type":"address","internalType":"address"}],"stateMutability":"view"},{"type":"event","name":"collateralDeposited","inputs":[{"name":"user","type":"address","indexed":true,"internalType":"address"},{"name":"token","type":"address","indexed":true,"internalType":"address"},{"name":"amount","type":"uint256","indexed":false,"internalType":"uint256"}],"anonymous":false},{"type":"event","name":"collateralRedeemed","inputs":[{"name":"from","type":"address","indexed":true,"internalType":"address"},{"name":"to","type":"address","indexed":true,"internalType":"address"},{"name":"token","type":"address","indexed":false,"internalType":"address"},{"name":"amount","type":"uint256","indexed":false,"internalType":"uint256"}],"anonymous":false},{"type":"error","name":"Engine__HighHealth","inputs":[]},{"type":"error","name":"Engine__LowHealthFactor","inputs":[{"name":"healthFactor","type":"uint256","internalType":"uint256"}]},{"type":"error","name":"Engine__MintFailed","inputs":[]},{"type":"error","name":"Engine__NotEnoughCollateral","inputs":[]},{"type":"error","name":"Engine__NotMoreThanZero","inputs":[]},{"type":"error","name":"Engine__TokenAddressAndPriceNotSameLength","inputs":[]},{"type":"error","name":"Engine__TokenNotSupported","inputs":[]},{"type":"error","name":"Engine__TransferFailed","inputs":[]},{"type":"error","name":"ReentrancyGuardReentrantCall","inputs":[]}],"bytecode":{"object":"0x60a06040523480156200001157600080fd5b50604051620011ad380380620011ad8339810160408190526200003491620002e4565b6001600081815581546001600160a01b0319166001600160a01b038416179091555b8351811015620000db5782818151811062000075576200007562000360565b60200260200101516002600086848151811062000096576200009662000360565b6020908102919091018101516001600160a01b0390811683529082019290925260400160002080546001600160a01b0319169290911691909117905560010162000056565b508151835114620000ff576040516354e8b3c760e01b815260040160405180910390fd5b60005b8351811015620001eb5782818151811062000121576200012162000360565b60200260200101516002600086848151811062000142576200014262000360565b60200260200101516001600160a01b03166001600160a01b0316815260200190815260200160002060006101000a8154816001600160a01b0302191690836001600160a01b031602179055506005848281518110620001a557620001a562000360565b60209081029190910181015182546001808201855560009485529290932090920180546001600160a01b0319166001600160a01b03909316929092179091550162000102565b506001600160a01b031660805250620003769050565b634e487b7160e01b600052604160045260246000fd5b80516001600160a01b03811681146200022f57600080fd5b919050565b600082601f8301126200024657600080fd5b815160206001600160401b038083111562000265576200026562000201565b8260051b604051601f19603f830116810181811084821117156200028d576200028d62000201565b6040529384526020818701810194908101925087851115620002ae57600080fd5b6020870191505b84821015620002d957620002c98262000217565b83529183019190830190620002b5565b979650505050505050565b600080600060608486031215620002fa57600080fd5b83516001600160401b03808211156200031257600080fd5b620003208783880162000234565b945060208601519150808211156200033757600080fd5b50620003468682870162000234565b925050620003576040850162000217565b90509250925092565b634e487b7160e01b600052603260045260246000fd5b608051610e06620003a7600039600081816101d201528181610365015281816108be01526109630152610e066000f3fe608060405234801561001057600080fd5b50600436106100b45760003560e01c80639acd81b3116100715780639acd81b314610158578063a5d5db0c1461016b578063a69f5e8a1461017e578063c01745fd14610191578063d63f8e59146101ba578063e64592d5146101cd57600080fd5b806326c01303146100b95780632d2dbc0c146100ce578063394bf64f146100e15780633b59acb4146100f45780635b6cca801461010757806394c0b5d014610137575b600080fd5b6100cc6100c7366004610bb8565b6101f4565b005b6100cc6100dc366004610bf9565b6102bc565b6100cc6100ef366004610bf9565b6102f6565b6100cc610102366004610c12565b6103ff565b61011a610115366004610c47565b610412565b6040516001600160a01b0390911681526020015b60405180910390f35b61014a610145366004610c6b565b610487565b60405190815260200161012e565b6100cc610166366004610c6b565b610545565b6100cc610179366004610c6b565b6105fe565b61014a61018c366004610c47565b61076d565b61011a61019f366004610c47565b6002602052600090815260409020546001600160a01b031681565b61011a6101c8366004610bf9565b6107ea565b61011a7f000000000000000000000000000000000000000000000000000000000000000081565b8080600003610216576040516373e38c0d60e11b815260040160405180910390fd5b61021e610814565b60006102298461083e565b9050670de0b6b3a76400008110610252576040516238f6e560e71b815260040160405180910390fd5b600061025e8685610487565b905061026b848633610862565b60006102768661083e565b90508281116102a057604051630ca6fbcb60e21b8152600481018290526024015b60405180910390fd5b6102a9336109cd565b5050506102b66001600055565b50505050565b80806000036102de576040516373e38c0d60e11b815260040160405180910390fd5b6102e9823333610862565b6102f2336109cd565b5050565b8080600003610318576040516373e38c0d60e11b815260040160405180910390fd5b3360009081526004602052604081208054849290610337908490610cad565b909155506103469050336109cd565b6040516340c10f1960e01b8152336004820152602481018390526000907f00000000000000000000000000000000000000000000000000000000000000006001600160a01b0316906340c10f19906044016020604051808303816000875af11580156103b6573d6000803e3d6000fd5b505050506040513d601f19601f820116820180604052508101906103da9190610cc0565b9050806103fa5760405163e88f327f60e01b815260040160405180910390fd5b505050565b61040983836105fe565b6103fa816102f6565b60015460405163c01745fd60e01b81526001600160a01b038381166004830152600092169063c01745fd90602401602060405180830381865afa15801561045d573d6000803e3d6000fd5b505050506040513d601f19601f820116820180604052508101906104819190610ce2565b92915050565b6001600160a01b03808316600090815260026020526040808220548151633fabe5a360e21b81529151929316918391839163feaf968c9160048082019260a0929091908290030181865afa1580156104e3573d6000803e3d6000fd5b505050506040513d601f19601f820116820180604052508101906105079190610d1e565b505050915050670de0b6b3a7640000846402540be400836105289190610d6e565b6105329190610d6e565b61053c9190610d85565b95945050505050565b8080600003610567576040516373e38c0d60e11b815260040160405180910390fd5b82600061057382610412565b6001600160a01b03160361059a57604051634e1b333f60e01b815260040160405180910390fd5b6105a2610814565b3360009081526003602090815260408083206001600160a01b0388168452909152902054838110156105e75760405163a27988a960e01b815260040160405180910390fd5b6105f385853333610a06565b506102b66001600055565b8080600003610620576040516373e38c0d60e11b815260040160405180910390fd5b82600061062c82610412565b6001600160a01b03160361065357604051634e1b333f60e01b815260040160405180910390fd5b61065b610814565b3360009081526003602090815260408083206001600160a01b03881684529091528120805485929061068e908490610cad565b90915550506040518381526001600160a01b0385169033907fe4c032bd651f378a59936633a0f92b7497fd3577f65c95dc20a01acface334cc9060200160405180910390a36040516323b872dd60e01b8152336004820152306024820152604481018490526000906001600160a01b038616906323b872dd906064016020604051808303816000875af1158015610729573d6000803e3d6000fd5b505050506040513d601f19601f8201168201806040525081019061074d9190610cc0565b9050806105f3576040516347a867b760e01b815260040160405180910390fd5b6000805b6005548110156107e45760006005828154811061079057610790610da7565b60009182526020808320909101546001600160a01b038781168452600383526040808520919092168085529252909120549091506107ce8282610487565b6107d89085610cad565b93505050600101610771565b50919050565b600581815481106107fa57600080fd5b6000918252602090912001546001600160a01b0316905081565b60026000540361083757604051633ee5aeb560e01b815260040160405180910390fd5b6002600055565b600080600061084c84610b2b565b9150915061085a8282610b55565b949350505050565b6001600160a01b0382166000908152600460205260408120805485929061088a908490610dbd565b90915550506040516323b872dd60e01b81526001600160a01b038281166004830152306024830152604482018590526000917f0000000000000000000000000000000000000000000000000000000000000000909116906323b872dd906064016020604051808303816000875af1158015610909573d6000803e3d6000fd5b505050506040513d601f19601f8201168201806040525081019061092d9190610cc0565b90508061094d576040516347a867b760e01b815260040160405180910390fd5b604051630852cd8d60e31b8152600481018590527f00000000000000000000000000000000000000000000000000000000000000006001600160a01b0316906342966c6890602401600060405180830381600087803b1580156109af57600080fd5b505af11580156109c3573d6000803e3d6000fd5b5050505050505050565b60006109d88261083e565b9050670de0b6b3a76400008110156102f257604051630ca6fbcb60e21b815260048101829052602401610297565b6001600160a01b03808316600090815260036020908152604080832093881683529290529081208054859290610a3d908490610dbd565b9091555050604080516001600160a01b0386811682526020820186905280841692908516917f71caac3cadab3f31a4ec2f424206de4367424868286b0b5ece091096b250ef82910160405180910390a360405163a9059cbb60e01b81526001600160a01b038281166004830152602482018590526000919086169063a9059cbb906044016020604051808303816000875af1158015610ae0573d6000803e3d6000fd5b505050506040513d601f19601f82011682018060405250810190610b049190610cc0565b905080610b245760405163a27988a960e01b815260040160405180910390fd5b5050505050565b6001600160a01b03811660009081526004602052604081205490610b4e8361076d565b9050915091565b600082600003610b685750600019610481565b60006064610b77603285610d6e565b610b819190610d85565b905083610b96670de0b6b3a764000083610d6e565b61085a9190610d85565b6001600160a01b0381168114610bb557600080fd5b50565b600080600060608486031215610bcd57600080fd5b8335610bd881610ba0565b92506020840135610be881610ba0565b929592945050506040919091013590565b600060208284031215610c0b57600080fd5b5035919050565b600080600060608486031215610c2757600080fd5b8335610c3281610ba0565b95602085013595506040909401359392505050565b600060208284031215610c5957600080fd5b8135610c6481610ba0565b9392505050565b60008060408385031215610c7e57600080fd5b8235610c8981610ba0565b946020939093013593505050565b634e487b7160e01b600052601160045260246000fd5b8082018082111561048157610481610c97565b600060208284031215610cd257600080fd5b81518015158114610c6457600080fd5b600060208284031215610cf457600080fd5b8151610c6481610ba0565b805169ffffffffffffffffffff81168114610d1957600080fd5b919050565b600080600080600060a08688031215610d3657600080fd5b610d3f86610cff565b9450602086015193506040860151925060608601519150610d6260808701610cff565b90509295509295909350565b808202811582820484141761048157610481610c97565b600082610da257634e487b7160e01b600052601260045260246000fd5b500490565b634e487b7160e01b600052603260045260246000fd5b8181038181111561048157610481610c9756fea2646970667358221220a8a274527b7c8998e47222d8e267b664061183f2e2c4de87ce78c234405b4e4864736f6c63430008180033","linkReferences":{}},"methodIdentifiers":{"AccountCollateralValue(address)":"a69f5e8a","burnBrsc(uint256)":"2d2dbc0c","depositCollMintBrsc(address,uint256,uint256)":"3b59acb4","depositCollateral(address,uint256)":"a5d5db0c","getPriceFeed(address)":"5b6cca80","getUSDValueOfToken(address,uint256)":"94c0b5d0","i_ETHRS()":"e64592d5","liquidate(address,address,uint256)":"26c01303","mintBrsc(uint256)":"394bf64f","redeemCollateral(address,uint256)":"9acd81b3","s_PriceFeed(address)":"c01745fd","s_collateralTokens(uint256)":"d63f8e59"},"id":0}