{"abi":[{"type":"constructor","inputs":[{"name":"_EngineCoreAddress","type":"address","internalType":"address"}],"stateMutability":"nonpayable"},{"type":"function","name":"getPriceFeed","inputs":[{"name":"_tokenAddress","type":"address","internalType":"address"}],"outputs":[{"name":"","type":"address","internalType":"address"}],"stateMutability":"view"},{"type":"error","name":"Engine__HighHealth","inputs":[]},{"type":"error","name":"Engine__LowHealthFactor","inputs":[{"name":"healthFactor","type":"uint256","internalType":"uint256"}]},{"type":"error","name":"Engine__MintFailed","inputs":[]},{"type":"error","name":"Engine__NotEnoughCollateral","inputs":[]},{"type":"error","name":"Engine__NotMoreThanZero","inputs":[]},{"type":"error","name":"Engine__TokenAddressAndPriceNotSameLength","inputs":[]},{"type":"error","name":"Engine__TokenNotSupported","inputs":[]},{"type":"error","name":"Engine__TransferFailed","inputs":[]}],"bytecode":{"object":"0x608060405234801561001057600080fd5b506040516101f63803806101f683398101604081905261002f91610054565b600080546001600160a01b0319166001600160a01b0392909216919091179055610084565b60006020828403121561006657600080fd5b81516001600160a01b038116811461007d57600080fd5b9392505050565b610163806100936000396000f3fe608060405234801561001057600080fd5b506004361061002b5760003560e01c80635b6cca8014610030575b600080fd5b61004361003e3660046100ec565b61005f565b6040516001600160a01b03909116815260200160405180910390f35b6000805460405163c01745fd60e01b81526001600160a01b0384811660048301529091169063c01745fd90602401602060405180830381865afa1580156100aa573d6000803e3d6000fd5b505050506040513d601f19601f820116820180604052508101906100ce9190610110565b92915050565b6001600160a01b03811681146100e957600080fd5b50565b6000602082840312156100fe57600080fd5b8135610109816100d4565b9392505050565b60006020828403121561012257600080fd5b8151610109816100d456fea264697066735822122008d9981376ff513bf31a48e064f4d7828cb8f872ddde6b90234c07429bc4c30a64736f6c63430008180033","linkReferences":{}},"methodIdentifiers":{"getPriceFeed(address)":"5b6cca80"},"id":1}