{"abi":[{"type":"function","name":"getTimeout","inputs":[{"name":"","type":"AggregatorV3Interface","internalType":"contract AggregatorV3Interface"}],"outputs":[{"name":"","type":"uint256","internalType":"uint256"}],"stateMutability":"pure"},{"type":"function","name":"staleCheckLatestRoundData","inputs":[{"name":"chainlinkFeed","type":"AggregatorV3Interface","internalType":"contract AggregatorV3Interface"}],"outputs":[{"name":"","type":"uint80","internalType":"uint80"},{"name":"","type":"int256","internalType":"int256"},{"name":"","type":"uint256","internalType":"uint256"},{"name":"","type":"uint256","internalType":"uint256"},{"name":"","type":"uint80","internalType":"uint80"}],"stateMutability":"view"},{"type":"error","name":"OracleLib__StalePrice","inputs":[]}],"bytecode":{"object":"0x6102b661003a600b82828239805160001a60731461002d57634e487b7160e01b600052600060045260246000fd5b30600052607381538281f3fe73000000000000000000000000000000000000000030146080604052600436106100405760003560e01c80632ba1c96a1461004557806347096f8114610094575b600080fd5b6100586100533660046101ba565b6100b7565b6040805169ffffffffffffffffffff968716815260208101959095528401929092526060830152909116608082015260a0015b60405180910390f35b6100a96100a23660046101ba565b50612a3090565b60405190815260200161008b565b6000806000806000806000806000808a6001600160a01b031663feaf968c6040518163ffffffff1660e01b815260040160a060405180830381865afa158015610104573d6000803e3d6000fd5b505050506040513d601f19601f820116820180604052508101906101289190610209565b94509450945094509450816000148061015857508469ffffffffffffffffffff168169ffffffffffffffffffff16105b1561017657604051636250849d60e11b815260040160405180910390fd5b60006101828342610259565b9050612a308111156101a757604051636250849d60e11b815260040160405180910390fd5b50939a9299509097509550909350915050565b6000602082840312156101cc57600080fd5b81356001600160a01b03811681146101e357600080fd5b9392505050565b805169ffffffffffffffffffff8116811461020457600080fd5b919050565b600080600080600060a0868803121561022157600080fd5b61022a866101ea565b945060208601519350604086015192506060860151915061024d608087016101ea565b90509295509295909350565b8181038181111561027a57634e487b7160e01b600052601160045260246000fd5b9291505056fea2646970667358221220a7af66191a88d4a98b7739467d1b63fc8f280a40067661e910d27fa00a5b36b264736f6c63430008180033","linkReferences":{}},"methodIdentifiers":{"getTimeout(AggregatorV3Interface)":"47096f81","staleCheckLatestRoundData(AggregatorV3Interface)":"2ba1c96a"},"id":4}